:020000040800F2
:10000000FFFF02208DAD000885A5000891A500081E
:10001000CDA60008D5A60008DDA600080000000057
:10002000000000000000000000000000A1620008C5
:10003000E5A600080000000071640008F1A60008B1
:10004000DDAD0008DDAD0008DDAD0008DDAD000868
:10005000DDAD0008DDAD0008DDAD0008DDAD000858
:10006000DDAD0008DDAD0008DDAD0008DDAD000848
:10007000DDAD0008DDAD0008DDAD0008DDAD000838
:10008000DDAD0008DDAD000841A8000801A70008AB
:1000900011A7000825A7000839A70008DDAD000852
:1000A000DDAD0008DDAD0008DDAD0008DDAD000808
:1000B000DDAD000859A80008DDAD0008DDAD000881
:1000C000DDAD0008DDAD0008DDAD0008DDAD0008E8
:1000D000B1A70008DDAD000835A8000829A8000870
:1000E000DDAD0008DDAD0008DDAD0008DDAD0008C8
:1000F000DDAD0008DDAD0008DDAD0008DDAD0008B8
:10010000DDAD0008DDAD0008DDAD0008DDAD0008A7
:10011000DDAD0008DDAD0008DDAD0008DDAD000897
:10012000C9A70008E1A70008F9A7000811A800085E
:10013000DDAD0008DDAD0008DDAD00084DA700080D
:100140005DA7000871A7000885A70008DDAD0008BD
:10015000DDAD0008DDAD0008DDAD0008DDAD000857
:10016000DDAD0008DDAD0008DDAD0008DDAD000847
:10017000DDAD0008DDAD0008DDAD000800000000C9
:10018000DDAD0008DDAD0008DDAD0008DDAD000827
:10019000DDAD0008DDAD000899A70008DDAD000861
:1001A000DDAD0008DDAD0008DDAD0008FFFFFFFF9D
:1001B00010B5054C237833B9044B13B10448AFF3A1
:1001C00000800123237010BD841000200000000077
:1001D00054260108084B10B51BB108480849AFF375
:1001E00000800848036803B910BD074B002BFBD003
:1001F000BDE81040184700BF000000005426010869
:1002000088100020841000200000000081F00041D0
:1002100002E000BF83F0004330B54FEA41044FEAEB
:10022000430594EA050F08BF90EA020F1FBF54EA86
:10023000000C55EA020C7FEA645C7FEA655C00F022
:10024000E2804FEA5454D4EB5555B8BF6D420CDDF3
:100250002C4480EA020281EA030382EA000083EA76
:10026000010180EA020281EA0303362D88BF30BD16
:1002700011F0004F4FEA01314FF4801C4CEA11316C
:1002800002D0404261EB410113F0004F4FEA0333CB
:100290004CEA133302D0524263EB430394EA050F56
:1002A00000F0A780A4F10104D5F1200E0DDB02FAC5
:1002B0000EFC22FA05F2801841F1000103FA0EF259
:1002C000801843FA05F359410EE0A5F120050EF11F
:1002D000200E012A03FA0EFC28BF4CF0020C43FA50
:1002E00005F3C01851EBE37101F0004507D54FF05D
:1002F000000EDCF1000C7EEB00006EEB0101B1F5AD
:10030000801F1BD3B1F5001F0CD349085FEA3000F2
:100310004FEA3C0C04F101044FEA445212F5800FFD
:1003200080F09A80BCF1004F08BF5FEA500C50F19A
:10033000000041EB045141EA050130BD5FEA4C0C7D
:10034000404141EB010111F4801FA4F10104E9D106
:1003500091F0000F04BF01460020B1FA81F308BFFD
:100360002033A3F10B03B3F120020CDA0C3208DDC9
:1003700002F1140CC2F10C0201FA0CF021FA02F1A4
:100380000CE002F11402D8BFC2F1200C01FA02F114
:1003900020FA0CFCDCBF41EA0C019040E41AA2BF39
:1003A00001EB0451294330BD6FEA04041F3C1CDA01
:1003B0000C340EDC04F11404C4F1200220FA04F021
:1003C00001FA02F340EA030021FA04F345EA0301CB
:1003D00030BDC4F10C04C4F1200220FA02F001FA8D
:1003E00004F340EA0300294630BD21FA04F029460F
:1003F00030BD94F0000F83F4801306BF81F48011A8
:100400000134013D4EE77FEA645C18BF7FEA655C1A
:1004100029D094EA050F08BF90EA020F05D054EAEC
:10042000000C04BF1946104630BD91EA030F1EBFF1
:100430000021002030BD5FEA545C05D140004941F5
:1004400028BF41F0004130BD14F580043CBF01F5E8
:10045000801130BD01F0004545F0FE4141F47001CE
:100460004FF0000030BD7FEA645C1ABF19461046A9
:100470007FEA655C1CBF0B46024650EA013406BFAA
:1004800052EA033591EA030F41F4002130BD00BF69
:1004900090F0000F04BF0021704730B54FF4806426
:1004A00004F132044FF000054FF0000150E700BFA7
:1004B00090F0000F04BF0021704730B54FF4806406
:1004C00004F1320410F0004548BF40424FF00001F3
:1004D0003EE700BF42004FEAE2014FEA31014FEA36
:1004E00002701FBF12F07F4393F07F4F81F0605185
:1004F000704792F0000F14BF93F07F4F704730B5F4
:100500004FF4607401F0004521F0004120E700BF86
:1005100050EA010208BF704730B54FF000050AE00D
:1005200050EA010208BF704730B511F0004502D50E
:10053000404261EB41014FF4806404F132045FEA10
:10054000915C3FF4DCAE4FF003025FEADC0C18BFB5
:1005500003325FEADC0C18BF033202EBDC02C2F1AB
:10056000200300FA03FC20FA02F001FA03FE40EA3D
:100570000E0021FA02F11444C1E600BF70B54FF03D
:10058000FF0C4CF4E06C1CEA11541DBF1CEA13551F
:1005900094EA0C0F95EA0C0F00F0DEF82C4481EA87
:1005A000030621EA4C5123EA4C5350EA013518BFA7
:1005B00052EA033541F4801143F4801338D0A0FB94
:1005C00002CE4FF00005E1FB02E506F00042E0FB41
:1005D00003E54FF00006E1FB03569CF0000F18BF47
:1005E0004EF0010EA4F1FF04B6F5007F64F54074EF
:1005F00004D25FEA4E0E6D4146EB060642EAC62182
:1006000041EA55514FEAC52040EA5E504FEACE2EEE
:10061000B4F1FD0C88BFBCF5E06F1ED8BEF1004FF1
:1006200008BF5FEA500E50F1000041EB045170BD6D
:1006300006F0004646EA010140EA020081EA0301B1
:10064000B4EB5C04C2BFD4EB0C0541EA045170BDAD
:1006500041F480114FF0000E013C00F3AB8014F127
:10066000360FDEBF002001F0004170BDC4F1000470
:10067000203C35DA0C341BDC04F11404C4F12005F1
:1006800000FA05F320FA04F001FA05F240EA02004C
:1006900001F0004221F0004110EBD37021FA04F682
:1006A00042EB06015EEA430E08BF20EAD37070BD3C
:1006B000C4F10C04C4F1200500FA04F320FA05F09B
:1006C00001FA04F240EA020001F0004110EBD3709D
:1006D00041F100015EEA430E08BF20EAD37070BD0D
:1006E000C4F1200500FA05F24EEA020E20FA04F3E6
:1006F00001FA05F243EA020321FA04F001F0004195
:1007000021FA04F220EA020000EBD3705EEA430E05
:1007100008BF20EAD37070BD94F0000F0FD101F034
:100720000046400041EB010111F4801F08BF013C6D
:10073000F7D041EA060195F0000F18BF704703F0AB
:100740000046520043EB030313F4801F08BF013D32
:10075000F7D043EA0603704794EA0C0F0CEA1355EE
:1007600018BF95EA0C0F0CD050EA410618BF52EAA8
:100770004306D1D181EA030101F000414FF00000AE
:1007800070BD50EA410606BF1046194652EA4306BC
:1007900019D094EA0C0F02D150EA013613D195EA30
:1007A0000C0F05D152EA03361CBF104619460AD178
:1007B00081EA030101F0004141F0FE4141F4700182
:1007C0004FF0000070BD41F0FE4141F4780170BD72
:1007D00070B54FF0FF0C4CF4E06C1CEA11541DBFD7
:1007E0001CEA135594EA0C0F95EA0C0F00F0A7F8D9
:1007F000A4EB050481EA030E52EA03354FEA013106
:1008000000F088804FEA03334FF0805545EA131318
:1008100043EA12634FEA022245EA111545EA1065E0
:100820004FEA00260EF000419D4208BF964244F177
:10083000FD0404F5407402D25B084FEA3202B61A96
:1008400065EB03055B084FEA32024FF480104FF46A
:10085000002CB6EB020E75EB030E22BFB61A7546DE
:1008600040EA0C005B084FEA3202B6EB020E75EB71
:10087000030E22BFB61A754640EA5C005B084FEAD9
:100880003202B6EB020E75EB030E22BFB61A7546A6
:1008900040EA9C005B084FEA3202B6EB020E75EBB1
:1008A000030E22BFB61A754640EADC0055EA060E72
:1008B00018D04FEA051545EA16754FEA06164FEAB5
:1008C000C30343EA52734FEAC2025FEA1C1CC0D161
:1008D00011F4801F0BD141EA00014FF000004FF0EE
:1008E000004CB6E711F4801F04BF01430020B4F1AF
:1008F000FD0C88BFBCF5E06F3FF6AFAEB5EB030C67
:1009000004BFB6EB020C5FEA500C50F1000041EB63
:10091000045170BD0EF0004E4EEA113114EB5C0430
:10092000C2BFD4EB0C0541EA045170BD41F4801103
:100930004FF0000E013C90E645EA060E8DE60CEA0B
:10094000135594EA0C0F08BF95EA0C0F3FF43BAF28
:1009500094EA0C0F0AD150EA01347FF434AF95EADF
:100960000C0F7FF425AF104619462CE795EA0C0FC3
:1009700006D152EA03353FF4FDAE1046194622E790
:1009800050EA410618BF52EA43067FF4C5AE50EA6A
:1009900041047FF40DAF52EA43057FF4EBAE12E75A
:1009A0004A0011D212F5001211D20DD56FF47873EE
:1009B000B3EB62520ED44FEAC12343F0004343EA43
:1009C000505323FA02F070474FF00000704750EA8E
:1009D000013002D14FF0FF3070474FF000007047F8
:1009E0004FEA4102B2F1E04324BFB3F5001CDCF151
:1009F000FE5C0DD901F0004C4FEAC0024CEA507089
:100A0000B2F1004F40EB830008BF20F001007047B7
:100A100011F0804F21D113F13872BCBF01F00040BA
:100A2000704741F480114FEA5252C2F11802C2F1EC
:100A3000200C10FA0CF320FA02F018BF40F001006D
:100A40004FEAC1234FEAD32303FA0CFC40EA0C001F
:100A500023FA02F34FEA4303CCE77FEA625307D15C
:100A600050EA01331EBF4FF0FE4040F44000704793
:100A700001F0004040F0FE4040F40000704700BF2D
:100A800070B50E4B0E4CE41AA41000251E46A5426C
:100A900004D056F8253098470135F8E711F0DAFD13
:100AA000084C094BE41AA41000251E46A54204D0A8
:100AB00056F8253098470135F8E770BDC430010875
:100AC000C4300108C8300108C430010810B5431E05
:100AD0000A44914204D011F8014B03F8014FF8E7A2
:100AE00010BD02440346934202D003F8011BFAE70B
:100AF0007047FFFF80B500AF0E4A0E4B1B6843F4F2
:100B0000007313600B4A0B4B1B6843F48063136044
:100B1000084A084B1B6843F480731360032001F0FC
:100B200005FD0F2000F008F809F05CFC00231846D2
:100B300080BD00BF003C024080B582B000AF78604D
:100B4000094B1B68094AA2FB03239B09184601F0C5
:100B500057FD4FF0FF307968002201F007FD0023B8
:100B600018460837BD4680BD38000020D34D6210BE
:100B700080B400AF044B1B680133034A1360BD46C9
:100B80005DF8047B704700BF685C002080B400AF54
:100B9000034B1B681846BD465DF8047B704700BFD9
:100BA000685C002080B584B000AF78600023FB73E0
:100BB0007B68002B01D1012357E17B681B68A24AA7
:100BC00093420ED07B681B68A04A934209D07B6891
:100BD0001B689F4A934204D09E4840F20D1109F0D1
:100BE000CBFC7B685B68002B13D07B685B68B3F53C
:100BF000803F0ED07B685B68B3F5003F09D07B680F
:100C00005B68B3F5403F04D092484FF4877109F018
:100C1000B3FC7B689B68002B13D07B689B68B3F1A7
:100C2000807F0ED07B689B68B3F1007F09D07B6822
:100C30009B68B3F1407F04D0864840F20F1109F061
:100C40009BFC7B681B69002B08D07B681B69012B10
:100C500004D080484FF4887109F08EFC7B689B6952
:100C6000002B08D07B689B69012B04D0794840F2A7
:100C7000111109F081FC7B689B6A002B54D07B68C2
:100C80009B6AB3F1807F4FD07B689B6AB3F1007F92
:100C90004AD07B689B6AB3F1407F45D07B689B6AF2
:100CA000B3F1806F40D07B689B6AB3F1A06F3BD0FB
:100CB0007B689B6AB3F1C06F36D07B689B6AB3F1E7
:100CC000E06F31D07B689B6AB3F1006F2CD07B68FA
:100CD0009B6AB3F1106F27D07B689B6AB3F1206FDA
:100CE00022D07B689B6AB3F1306F1DD07B689B6A12
:100CF000B3F1406F18D07B689B6AB3F1506F13D08B
:100D00007B689B6AB3F1606F0ED07B689B6AB3F11E
:100D1000706F09D07B689B6A4F4A934204D04D485C
:100D20004FF4897109F028FC7B68DB68002B09D03F
:100D30007B68DB68B3F5006F04D0464840F21311BE
:100D400009F01AFC7B68DB69002B03D07B68DB6948
:100D5000102B04D93F484FF48A7109F00DFC7B68D1
:100D60001B6B002B08D07B681B6B012B04D0394810
:100D700040F2151109F000FC7B685B69012B0CD077
:100D80007B685B69002B08D07B685B69022B04D011
:100D900030484FF48B7109F0EFFB7B681B6A002B26
:100DA00008D07B681B6A012B04D02A4840F2171137
:100DB00009F0E2FB7B689B6A274A934217D07B6865
:100DC000DB6A002B13D07B68DB6AB3F1805F0ED047
:100DD0007B68DB6AB3F1005F09D07B68DB6AB3F143
:100DE000405F04D01B4840F21B1109F0C5FB7B6833
:100DF0001B6C002B09D17B6800225A647B6800229F
:100E000083F83C20786800F035F87B681B6C03F0B1
:100E10001003002B22D17B681B6C23F4885323F032
:100E2000020343F002027B681A64786800F04EFC0B
:100E30007B6800225A647B681B6C23F0030343F039
:100E400001027B681A640BE0002001400021014090
:100E500000220140302701080100000F0123FB732D
:100E60007B68002283F83C20FB7B18461037BD4688
:100E700080BD00BF80B483B000AF78600C37BD4642
:100E80005DF8047B704700BF80B584B000AF786028
:100E90000023FB607B689B69002B08D07B689B6903
:100EA000012B04D05C4840F2DD2109F065FB7B6832
:100EB000DB6A002B13D07B68DB6AB3F1805F0ED056
:100EC0007B68DB6AB3F1005F09D07B68DB6AB3F152
:100ED000405F04D0504840F2DE2109F04DFB7B68B2
:100EE00093F83C30012B01D1022391E07B68012271
:100EF00083F83C207B681B689B6803F00103002B90
:100F000018D17B681B687A681268926842F0010207
:100F10009A60424B1B68424AA2FB03239A0C134679
:100F20005B001344FB6002E0FB68013BFB60FB6875
:100F3000002BF9D17B681B689B6803F00103002B31
:100F400065D07B681B6C23F4E06323F0010343F45A
:100F500080727B681A647B681B685B6803F480633B
:100F6000002B07D07B681B6C23F4405343F4805262
:100F70007B681A647B681B6C03F48053002B06D0DB
:100F80007B685B6C23F006027B685A6402E07B6836
:100F900000225A647B68002283F83C207B681B682F
:100FA0006FF022021A607B681A687B681B685B68B6
:100FB00043F0806343F0200353601A4B5B6803F0F7
:100FC0001F03002B0FD17B681B689B6803F0405305
:100FD000002B1CD17B681B687A681268926842F00B
:100FE00080429A6013E07B681B680F4A93420ED1DF
:100FF0007B681B689B6803F04053002B07D17B681C
:101000001B687A681268926842F080429A600023F6
:1010100018461037BD4680BD302701083800002033
:1010200083DE1B43002301400020014080B582B0D5
:1010300000AF78607B681B68244A93420ED07B68BF
:101040001B68234A934209D07B681B68214A93425C
:1010500004D0214840F2423109F08EFA7B6893F8BF
:101060003C30012B01D102232BE07B68012283F865
:101070003C207B681B687A681268926822F0010243
:101080009A607B681B689B6803F00103002B13D1F7
:101090007B681A687B681B685B6823F0806323F0B9
:1010A000200353607B681B6C23F4885323F00103F7
:1010B00043F001027B681A647B68002283F83C20BD
:1010C000002318460837BD4680BD00BF0020014000
:1010D00000210140002201403027010880B584B082
:1010E00000AF78600023FB600023BB607B689B69D6
:1010F000002B08D07B689B69012B04D0614840F22B
:10110000693109F039FA7B68DB69002B03D07B6811
:10111000DB69102B04D95B4840F26A3109F02CFAE4
:101120007B685B69012B0CD07B685B69002B08D066
:101130007B685B69022B04D0524840F26B3109F0A6
:101140001BFA7B681B681B6803F00203002B14BFAB
:1011500001230023DBB2FB607B681B685B6803F044
:101160002003002B14BF01230023DBB2BB60FB680C
:10117000002B49D0BB68002B46D07B681B6C03F06A
:101180001003002B05D17B681B6C43F400727B6855
:101190001A647B681B689B6803F04053002B2BD1BB
:1011A0007B689B69002B27D17B681B68DB6A03F493
:1011B0007003002B06D07B681B689B6803F4806378
:1011C000002B19D17B681B687A681268526822F07C
:1011D00020025A607B681B6C23F480727B681A645F
:1011E0007B681B6C03F48053002B05D17B681B6C60
:1011F00043F001027B681A64786809F021FE7B687D
:101200001B686FF012021A607B681B681B6803F092
:101210000403002B14BF01230023DBB2FB607B68B7
:101220001B685B6803F08003002B14BF01230023BD
:10123000DBB2BB60FB68002B5AD0BB68002B57D0D9
:101240007B681B6C03F01003002B05D17B681B6CC3
:1012500043F400527B681A647B681B689B6803F444
:101260004013002B3CD17B681B689B6B03F440133D
:10127000002B09D07B681B689B6803F48063002BFC
:101280002ED101E0302701087B681B685B6803F4FE
:101290008063002B24D17B681B689B6803F040535C
:1012A000002B1DD17B689B69002B19D17B681B68C3
:1012B0007A681268526822F080025A607B681B6C60
:1012C00023F480527B681A647B681B6C03F4807380
:1012D000002B05D17B681B6C43F001027B681A640C
:1012E000786800F001FB7B681B686FF00C021A60E5
:1012F0007B681B681B6803F00103002B14BF0123EC
:101300000023DBB2FB607B681B685B6803F0400373
:10131000002B14BF01230023DBB2BB60FB68002B52
:1013200017D0BB68002B14D07B681B681B6803F0C8
:101330000103002B0DD07B681B6C43F480327B686B
:101340001A64786800F046F87B681B686FF0010249
:101350001A607B681B681B6803F02003002B14BF16
:1013600001230023DBB2FB607B681B685B6803F032
:101370008063002B14BF01230023DBB2BB60FB683A
:10138000002B15D0BB68002B12D07B685B6C43F040
:1013900002027B685A647B681B686FF020021A6047
:1013A000786800F021F87B681B686FF020021A60F3
:1013B0001037BD4680BD00BF80B483B000AF7860F9
:1013C0007B681B68DB6C18460C37BD465DF8047BF8
:1013D000704700BF80B483B000AF78600C37BD4663
:1013E0005DF8047B704700BF80B483B000AF7860C5
:1013F0000C37BD465DF8047B704700BF90B585B0E3
:1014000000AF786039600023FB603B681B68122BDB
:1014100009D93B681B689F4A934204D09E4840F21A
:10142000045109F0A9F83B685B68002B03D03B68C6
:101430005B68102B04D9984840F2055109F09CF8DC
:101440003B689B68002B20D03B689B68012B1CD01D
:101450003B689B68022B18D03B689B68032B14D019
:101460003B689B68042B10D03B689B68052B0CD015
:101470003B689B68062B08D03B689B68072B04D011
:10148000854840F2065109F077F87B6893F83C30C4
:10149000012B01D1022314E17B68012283F83C2057
:1014A0003B681B68092B26D97B681A687B681B6818
:1014B000D9683B681B689BB2184603465B0003442F
:1014C0001E3B184607238340DB430B40D3607B68F9
:1014D0001A687B681B68D9683B6898683B681B681A
:1014E0009BB21C4623465B0023441E3B00FA03F3D9
:1014F0000B43D36023E07B681A687B681B6819691B
:101500003B681B689BB2184603465B0003441846C1
:1015100007238340DB430B4013617B681A687B68B9
:101520001B6819693B6898683B681B689BB21C463E
:1015300023465B00234400FA03F30B4313613B682B
:101540005B68062B24D87B6819687B681B68586B1E
:101550003B685A6813469B001344053B1A461F23F9
:101560009340DB4303404B637B6819687B681B68CF
:10157000586B3B681B689BB21C463B685A68134615
:101580009B001344053B04FA03F303434B634CE015
:101590003B685B680C2B24D87B6819687B681B68E8
:1015A000186B3B685A6813469B001344233B1A464A
:1015B0001F239340DB4303400B637B6819687B6800
:1015C0001B68186B3B681B689BB21C463B685A68DB
:1015D00013469B001344233B04FA03F303430B63BA
:1015E00023E07B6819687B681B68D86A3B685A6887
:1015F00013469B001344413B1A461F239340DB4391
:101600000340CB627B6819687B681B68D86A3B68BB
:101610001B689BB21C463B685A6813469B001344E8
:10162000413B04FA03F30343CB627B681B681B4A0C
:10163000934209D13B681B68122B05D1184A184BFD
:101640005B6843F4800353607B681B68134A9342D2
:1016500032D13B681B680F4A934203D03B681B683A
:10166000112B29D10E4A0E4B5B6843F400035360E3
:101670003B681B68074A93421ED10A4B1B680A4A03
:10168000A2FB03239A0C13469B0013445B00FB60F0
:101690000FE000BF120000103027010800200140B9
:1016A000002301403800002083DE1B43FB68013B20
:1016B000FB60FB68002BF9D17B68002283F83C209B
:1016C000002318461437BD4690BD00BF80B584B0D6
:1016D00000AF7860814A814B5B6823F440335360EC
:1016E0007E497E4B5A687B685B6813434B607B681E
:1016F0001B687A681268526822F480725A607B68AC
:101700001B687A68126851687A68126912020A4383
:101710005A607B681B687A681268526822F04072CF
:101720005A607B681B687A68126851687A689268A8
:101730000A435A607B681B687A681268926822F4D0
:1017400000629A607B681B687A68126891687A68A0
:10175000D2680A439A607B689B6A614A934222D0AE
:101760007B681B687A681268926822F070629A60DF
:101770007B681B687A68126891687A68926A0A4383
:101780009A607B681B687A681268926822F04052FF
:101790009A607B681B687A68126891687A68D26A76
:1017A0000A439A600FE07B681B687A681268926847
:1017B00022F070629A607B681B687A68126892688F
:1017C00022F040529A607B681B687A6812689268BF
:1017D00022F002029A607B681B687A68126891683E
:1017E0007A68926952000A439A607B681B6A002BF0
:1017F00032D07B685B6A002B03D07B685B6A082B66
:1018000004D9384840F20A6108F0B6FE7B681B68CC
:101810007A681268526842F400625A607B681B68FA
:101820007A681268526822F460425A607B685B6A88
:101830005A1E4FF46043FB60FB6893FAA3F3BB604E
:10184000BB68B3FA83F39A407B681B6879680968C0
:1018500049680A435A6007E07B681B687A68126827
:10186000526822F400625A607B681B687A681268CA
:10187000D26A22F47002DA627B681B687A681268A6
:10188000D16A7A68D269013A12050A43DA627B6842
:101890001B687A681268926822F400729A607B680A
:1018A0001B687A68126891687A68126B52020A4360
:1018B0009A607B681B687A681268926822F480627A
:1018C0009A607B681B687A68126891687A685269C6
:1018D00092020A439A601037BD4680BD0023014042
:1018E0000100000F3027010880B483B000AF78609A
:1018F0000C37BD465DF8047B704700BF80B584B0EF
:1019000000AF78600323FB600023BB607B68002B83
:1019100001D10123C1E17B681B689A4A934208D038
:101920007B681B68984A934203D09848B52108F019
:1019300023FE7B689B69002B07D07B689B69012B8A
:1019400003D09248B62108F017FE7B68DB69002BB4
:1019500007D07B68DB69012B03D08C48B72108F0E6
:101960000BFE7B681B6A002B07D07B681B6A012B70
:1019700003D08648B82108F0FFFD7B685B6A002B26
:1019800007D07B685B6A012B03D08048B92108F03F
:10199000F3FD7B689B6A002B07D07B689B6A012B59
:1019A00003D07A48BA2108F0E7FD7B68DB6A002B98
:1019B00007D07B68DB6A012B03D07448BB2108F099
:1019C000DBFD7B689B68002B12D07B689B68B3F1C2
:1019D000804F0DD07B689B68B3F1004F08D07B68C7
:1019E0009B68B3F1404F03D06848BC2108F0C4FDA8
:1019F0007B68DB68002B12D07B68DB68B3F1807FEB
:101A00000DD07B68DB68B3F1007F08D07B68DB68B2
:101A1000B3F1407F03D05D48BD2108F0ADFD7B6888
:101A20001B69B3F5702F03D95848BE2108F0A4FDF7
:101A30007B685B69B3F5E00F03D95448BF2108F018
:101A40009BFD7B685B68002B04D07B685B68B3F50B
:101A5000806F03D94D48C02108F08EFD7B6893F854
:101A60003830DBB2002B06D17B68002283F83920A6
:101A7000786808F0BDFC7B68022283F838207B6818
:101A80001B687A681268126822F002021A607B688A
:101A90001B687A681268126842F001021A60FFF748
:101AA00075F8B86010E0FFF771F80246BB68D31A0A
:101AB0000A2B09D97B68032283F838207B6800222F
:101AC00083F839200323E8E07B681B685B6803F038
:101AD0000103002BE7D07B681B685B6803F0010300
:101AE000002B02D10023FB60C6E07B689B69012BC1
:101AF00008D17B681B687A681268126842F080021D
:101B00001A6007E07B681B687A681268126822F026
:101B100080021A607B68DB69012B08D17B681B6837
:101B20007A681268126842F040021A6007E07B6827
:101B30001B687A681268126822F040021A607B689B
:101B40001B6A012B08D17B681B687A6812681268CF
:101B500042F020021A6007E07B681B687A6812680E
:101B6000126822F020021A607B685B6A012B0FD199
:101B70007B681B687A681268126842F010021A606B
:101B80000EE000BF006400400068004080270108AC
:101B90007B681B687A681268126822F010021A606B
:101BA0007B689B6A012B08D17B681B687A68126886
:101BB000126842F008021A6007E07B681B687A68C6
:101BC0001268126822F008021A607B68DB6A012B37
:101BD00008D17B681B687A681268126842F00402B8
:101BE0001A6007E07B681B687A681268126822F046
:101BF00004021A607B681B687A6891687A68D26808
:101C000011437A68126911437A68526911437A68FC
:101C10005268013A0A43DA617B681B687A68126885
:101C2000126822F001021A60FEF7B0FFB86010E0FF
:101C3000FEF7ACFF0246BB68D31A0A2B09D97B68B2
:101C4000032283F838207B68002283F8392003239D
:101C500023E07B681B685B6803F00103002BE7D17E
:101C60007B681B685B6803F00103002B02D0002334
:101C7000FB6001E00123FB60FB68012B08D17B685E
:101C80000022DA637B68012283F83820002304E015
:101C90007B68042283F83820012318461037BD469C
:101CA00080BD00BF80B584B000AF7860396000238C
:101CB000FB603B685B691B2B04D9814840F26D11C6
:101CC00008F05AFC3B689B69002B08D03B689B6975
:101CD000012B04D07A484FF4B77108F04DFC3B68F3
:101CE000DB69002B08D03B68DB69012B04D074480A
:101CF00040F26F1108F040FC3B681B69002B08D0D4
:101D00003B681B69012B04D06D484FF4B87108F093
:101D100033FC3B681B6A002B08D03B681B6A012B15
:101D200004D0674840F2711108F026FC3B685B6AFA
:101D30001C2B04D962484FF4B97108F01DFC3B68B4
:101D40005B691A4601239340FB605E4A5D4BD3F802
:101D5000003243F00103C2F800325A4A594BD3F81B
:101D6000003223F47C53C2F800325649554BD3F865
:101D700000223B685B6A1B021343C1F800325149E1
:101D8000504BD3F81C22FB68DB431340C1F81C32D4
:101D90003B68DB69002B23D14A494A4BD3F80C221C
:101DA000FB68DB431340C1F80C3246483B685B6973
:101DB0003A68D26811043A68526892B20A434833CA
:101DC00040F833203F483B685B693A6892681104E9
:101DD0003A68126892B20A434833DB0003445A60FF
:101DE0003B68DB69012B22D13649364BD3F80C22F4
:101DF000FB681343C1F80C3232483B685B693A68B0
:101E0000126811043A68526892B20A43483340F8A3
:101E100033202C483B685B693A68926811043A6841
:101E2000D26892B20A434833DB0003445A603B68ED
:101E30009B69002B09D12349224BD3F80422FB686C
:101E4000DB431340C1F8043207E01E491D4BD3F8B1
:101E50000422FB681343C1F804323B681B69002B62
:101E600008D11849174BD3F81422FB68DB43134001
:101E7000C1F814323B681B69012B07D11149114B82
:101E8000D3F81422FB681343C1F814323B681B6A71
:101E9000012B07D10B490B4BD3F81C22FB681343D2
:101EA000C1F81C32074A074BD3F8003223F0010374
:101EB000C2F80032002318461037BD4680BD00BF6F
:101EC000802701080064004080B582B000AF7860D0
:101ED0007B68002B01D101231EE07B681B68104A40
:101EE000934209D07B681B680E4A934204D00E4887
:101EF0004FF4EB7108F040FB7B68022283F8382036
:101F0000786808F0CFFA7B68002283F838207B6875
:101F1000002283F83920002318460837BD4680BDCB
:101F200000640040006800408027010880B584B04C
:101F300000AF78600523FB607B681B6B9B68002B00
:101F400009D07B681B6B9B68042B04D08D4840F242
:101F5000A52108F011FB7B681B6BDB68002B09D007
:101F60007B681B6BDB68022B04D0864840F2A621FD
:101F700008F002FB7B681B6B1B69082B04D98148A6
:101F800040F2A72108F0F8FA7B681B689B6803F011
:101F90008063002B0ED17B681B689B6803F0006395
:101FA000002B07D17B681B689B6803F08053002BD4
:101FB00000F037817B6893F83930012B01D102237F
:101FC00034E17B68012283F839207B681B689B68B9
:101FD00003F08063002B02D00023FB600BE07B68E2
:101FE0001B689B6803F00063002B02D00123FB6099
:101FF00001E00223FB607B6819687B681A68FB6854
:1020000018331B0113441B6803F00102FB681833EB
:102010001B010B441A607B681B6B9B68002B22D151
:102020007B681B6B1B68B3F5006F04D3554840F207
:10203000C22108F0A1FA7B6819687B681A68FB68FE
:1020400018331B0113441A687B681B6B1B68580507
:102050007B681B6BDB6803431A43FB6818331B0167
:102060000B441A6025E07B681B6B5B68B3F1005F73
:1020700004D344484FF4327108F07EFA7B68196843
:102080007B681A68FB6818331B0113441A687B6865
:102090001B6B5B68D8007B681B6B9B6818437B6875
:1020A0001B6BDB6803431A43FB6818331B010B44AB
:1020B0001A607B681B6B7A68126B126902F00F0260
:1020C0001A617B6819687B681A68FB6818331B0102
:1020D00013445B6823F00F02FB6818331B010B44A9
:1020E0005A607B6819687B681A68FB6818331B01A3
:1020F00013445A687B681B6B1B691A43FB681833CF
:102100001B010B445A607B6819687B681B6BDB7D85
:102110001A067B681B6B9B7D1B041A437B681B6B39
:102120005B7D1B0213437A68126B127D1A43FB68B6
:102130001B010B4403F5C4731A607B6819687B6844
:102140001B6BDB7E1A067B681B6B9B7E1B041A4392
:102150007B681B6B5B7E1B0213437A68126B127EDB
:102160001A43FB681B010B4403F5C4735A607B6878
:1021700093F83830DBB2222B06D17B68322283F809
:10218000382005E0802701087B68122283F8382078
:102190007B680022DA637B68002283F839207B6841
:1021A0001B687A681268526942F480725A617B68CF
:1021B0001B687A681268526942F400725A617B683F
:1021C0001B687A681268526942F480625A617B68BF
:1021D0001B687A681268526942F400625A617B682F
:1021E0001B687A681268526942F400425A617B683F
:1021F0001B687A681268526942F001025A617B6872
:1022000019687B681A68FB6818331B0113441B6844
:1022100043F00102FB6818331B010B441A600023D2
:1022200004E07B68042283F8382001231846103725
:10223000BD4680BD80B584B000AF78600B46FB70B2
:102240000023FB60FB78002B07D0FB78012B04D028
:102250003A4840F2863108F08FF97B6893F83830BD
:10226000DBB2FB60FB68012B02D0FB68122B5DD157
:102270007B6893F83930012B01D1022359E07B6848
:10228000012283F839207B6893F83830DBB2122BB7
:1022900004D17B68322283F8382003E07B68222255
:1022A00083F838207B680022DA637B681B687A68D1
:1022B0001268526942F480725A617B681B687A68BE
:1022C0001268526942F400725A617B681B687A682E
:1022D0001268526942F480625A617B681B687A68AE
:1022E0001268526942F400625A617B681B687A681E
:1022F0001268526942F400425A617B68002283F8F6
:102300003920FB78002B08D17B681B687A6812683B
:10231000526942F002025A610AE07B681B687A68DF
:102320001268526942F010025A6101E0022300E093
:10233000002318461037BD4680BD00BF8027010826
:1023400080B485B000AF78607B6803F00703FB6062
:102350000C4BDB68BB60BA684FF6FF031340BB60F1
:10236000FB681A02BB68134343F0BF6343F40033B6
:10237000BB60044ABB68D3601437BD465DF8047B7C
:10238000704700BF00ED00E080B400AF044BDB6895
:1023900003F4E0631B0A1846BD465DF8047B7047F2
:1023A00000ED00E080B483B000AF0346FB71084944
:1023B00097F907305B09FA7902F01F02012000FA51
:1023C00002F241F823200C37BD465DF8047B7047CC
:1023D00000E100E080B483B000AF0346FB7109491F
:1023E00097F907305B09FA7902F01F02012000FA21
:1023F00002F2603341F823200C37BD465DF8047BC0
:10240000704700BF00E100E080B483B000AF034636
:102410003960FB7197F90730002B0BDA0D49FB7916
:1024200003F00F03043B3A68D2B21201D2B20B445C
:102430001A7609E0084997F907303A68D2B21201D2
:10244000D2B20B4483F800230C37BD465DF8047B01
:10245000704700BF00ED00E000E100E080B489B00B
:1024600000AFF860B9607A60FB6803F00703FB61B6
:10247000FB69C3F10703042B28BF0423BB61FB697D
:102480000433062B02D9FB69033B00E000237B6188
:10249000BB69012202FA03F35A1EBB681A407B692A
:1024A0009A407B69012101FA03F3591E7B680B40B6
:1024B000134318462437BD465DF8047B704700BFC0
:1024C00080B400AFBFF34F8F0549054BDB6803F4C1
:1024D000E062044B1343CB60BFF34F8F00BFFDE7B7
:1024E00000ED00E00400FA0580B582B000AF78602E
:1024F0007B68013BB3F1807F01D301230FE00A4ADF
:102500007B68013B53604FF0FF300F21FFF77CFFEA
:10251000054B00229A60044B07221A6000231846DC
:102520000837BD4680BD00BF10E000E080B582B036
:1025300000AF78607B68072B0FD07B68062B0CD030
:102540007B68052B09D07B68042B06D07B68032BA6
:1025500003D00548A42108F00FF87868FFF7F0FED3
:102560000837BD4680BD00BFD027010880B586B0C2
:1025700000AF0346B9607A60FB7300237B617B6820
:102580000F2B03D90E48BC2107F0F6FFBB680F2BB9
:1025900003D90B48BD2107F0EFFFFFF7F5FE786187
:1025A0007869B9687A68FFF759FF024697F90F30E2
:1025B00018461146FFF728FF1837BD4680BD00BFFB
:1025C000D027010880B582B000AF0346FB7197F9B0
:1025D0000730002B03DA0648D02107F0CDFF97F92A
:1025E00007301846FFF7DEFE0837BD4680BD00BF46
:1025F000D027010880B500AFFFF762FF80BD00BFA4
:1026000080B582B000AF78607868FFF76DFF034651
:1026100018460837BD4680BD80B582B000AF03467E
:10262000FB7197F90730002B04DA064840F291114C
:1026300007F0A2FF97F907301846FFF7CBFE0837DF
:10264000BD4680BDD027010880B586B000AF786058
:1026500000237B61FEF79AFA38617B68002B01D179
:10266000012302E27B681B68974A93424ED07B6845
:102670001B68964A934249D07B681B68944A9342F0
:1026800044D07B681B68934A93423FD07B681B68A9
:10269000914A93423AD07B681B68904A934235D066
:1026A0007B681B688E4A934230D07B681B688D4ADA
:1026B00093422BD07B681B688B4A934226D07B6861
:1026C0001B688A4A934221D07B681B68884A9342E0
:1026D0001CD07B681B68874A934217D07B681B68B5
:1026E000854A934212D07B681B68844A93420DD07E
:1026F0007B681B68824A934208D07B681B68814ACA
:10270000934203D08048C92107F036FF7B685B689D
:10271000002B26D07B685B68B3F1007F21D07B68FB
:102720005B68B3F1806F1CD07B685B68B3F1C06FEE
:1027300017D07B685B68B3F1006F12D07B685B6871
:10274000B3F1206F0DD07B685B68B3F1406F08D0A8
:102750007B685B68B3F1606F03D06B48CA2107F0F8
:102760000BFF7B689B68002B0BD07B689B68402B22
:1027700007D07B689B68802B03D06348CB2107F090
:10278000FBFE7B68DB68B3F5007F07D07B68DB6806
:10279000002B03D05C48CC2107F0EEFE7B681B6960
:1027A000B3F5806F07D07B681B69002B03D05648B8
:1027B000CD2107F0E1FE7B685B69002B0DD07B68C3
:1027C0005B69B3F5006F08D07B685B69B3F5805F28
:1027D00003D04D48CE2107F0CFFE7B689B69002BCC
:1027E0000DD07B689B69B3F5005F08D07B689B695F
:1027F000B3F5804F03D04448CF2107F0BDFE7B687E
:10280000DB69002B0CD07B68DB69B3F5807F07D0D8
:102810007B68DB69202B03D03B48D02107F0ACFE5E
:102820007B681B6A002B12D07B681B6AB3F5803F64
:102830000DD07B681B6AB3F5003F08D07B681B6A2C
:10284000B3F5403F03D03048D12107F095FE7B68B7
:102850005B6A002B07D07B685B6A042B03D02A4895
:10286000D22107F089FE7B685B6A002B65D07B680C
:102870009B6A002B0FD07B689B6A012B0BD07B6877
:102880009B6A022B07D07B689B6A032B03D01E48F0
:10289000D72107F071FE7B68DB6A002B36D07B689E
:1028A000DB6AB3F5000F31D07B68DB6AB3F1807F60
:1028B0002CD07B68DB6AB3F1C07F27D01248D821C7
:1028C00007F05AFE22E000BF10600240286002407C
:1028D00040600240586002407060024088600240E0
:1028E000A0600240B86002401064024028640240C8
:1028F00040640240586402407064024088640240B0
:10290000A0640240B8640240202801087B681B6B69
:10291000002B12D07B681B6BB3F5001F0DD07B68BA
:102920001B6BB3F5800F08D07B681B6BB3F5C00F32
:1029300003D05048D92107F01FFE7B68002283F89E
:1029400034207B68022283F835207B681B687A6814
:102950001268126822F001021A600FE0FEF716F901
:1029600002463B69D31A052B08D97B6820225A6599
:102970007B68032283F83520032376E07B681B689D
:102980001B6803F00103002BE8D17B681B681B6800
:102990007B617A69384B13407B617B685A687B683E
:1029A0009B681A437B68DB681A437B681B691A4380
:1029B0007B685B691A437B689B691A437B68DB69A8
:1029C0001A437B681B6A13437A6913437B617B68F4
:1029D0005B6A042B07D17B68DA6A7B681B6B134345
:1029E0007A6913437B617B681B687A691A607B682C
:1029F0001B685B697B617B6923F007037B617B68F4
:102A00005B6A7A6913437B617B685B6A042B13D131
:102A10007B689B6A7A6913437B61786800F0C6FA29
:102A20000346002B08D07B6840225A657B68012250
:102A300083F83520012318E07B681B687A695A61A6
:102A4000786800F07DFA0346FB607B68DB6D1A4610
:102A50003F2303FA02F2FB689A607B6800225A6502
:102A60007B68012283F83520002318461837BD46BD
:102A700080BD00BF202801083F8010F080B586B0DF
:102A800000AFF860B9607A603B600023FB75FB68BB
:102A90009B6D3B613B68002B03D03B68B3F5803FE7
:102AA00004D32D4840F2CD1107F066FDFB6893F882
:102AB0003430012B01D102234AE0FB68012283F864
:102AC0003420FB6893F83530DBB2012B39D1FB6839
:102AD000022283F83520FB6800225A65F868B9683D
:102AE0007A683B6800F0FEF9FB68DB6D1A463F230D
:102AF00003FA02F23B699A60FB681B68FA68126885
:102B0000126842F016021A60FB681B68FA681268C5
:102B1000526942F080025A61FB681B6C002B07D09F
:102B2000FB681B68FA681268126842F008021A60B3
:102B3000FB681B68FA681268126842F001021A60AA
:102B400005E0FB68002283F834200223FB75FB7D3F
:102B500018461837BD4680BD2028010880B483B0D0
:102B600000AF78607B6893F83530DBB2022B04D07D
:102B70007B6880225A6501230CE07B68052283F87C
:102B800035207B681B687A681268126822F001029F
:102B90001A60002318460C37BD465DF8047B704769
:102BA00080B586B000AF78600023BB60994B1B688E
:102BB000994AA2FB03239B0A7B617B689B6D3B6167
:102BC0003B691B68FB607B68DB6D1A46082303FAD0
:102BD00002F2FB681340002B1CD07B681B681B684B
:102BE00003F00403002B15D07B681B687A68126819
:102BF000126822F004021A607B68DB6D1A46082313
:102C000003FA02F23B699A607B685B6D43F0010254
:102C10007B685A657B68DB6D1A46804B03FA02F2CB
:102C2000FB681340002B14D07B681B685B6903F0C2
:102C30008003002B0DD07B68DB6D1A46774B03FABF
:102C400002F23B699A607B685B6D43F002027B682D
:102C50005A657B68DB6D1A46714B03FA02F2FB681A
:102C60001340002B14D07B681B681B6803F0020321
:102C7000002B0DD07B68DB6D1A46694B03FA02F21C
:102C80003B699A607B685B6D43F004027B685A6520
:102C90007B68DB6D1A46102303FA02F2FB681340CF
:102CA000002B45D07B681B681B6803F00803002BD2
:102CB0003ED07B68DB6D1A46102303FA02F23B69B3
:102CC0009A607B681B681B6803F48023002B18D074
:102CD0007B681B681B6803F40023002B08D17B680A
:102CE0001B6C002B24D07B681B6C786898471FE016
:102CF0007B689B6C002B1BD07B689B6C786898472B
:102D000016E07B681B681B6803F48073002B07D1F7
:102D10007B681B687A681268126822F008021A60E1
:102D20007B681B6C002B03D07B681B6C7868984712
:102D30007B68DB6D1A46202303FA02F2FB6813401E
:102D4000002B00F097807B681B681B6803F0100362
:102D5000002B00F08F807B68DB6D1A46202303FA7E
:102D600002F23B699A607B6893F83530DBB2052B41
:102D700039D17B681B687A681268126822F01602E3
:102D80001A607B681B687A681268526922F08002B8
:102D90005A617B681B6C002B03D17B689B6C002BFA
:102DA00007D07B681B687A681268126822F00802F4
:102DB0001A607B68DB6D1A463F2303FA02F23B6917
:102DC0009A607B68002283F834207B68012283F8B4
:102DD00035207B681B6D002B04D07B681B6D7868E9
:102DE00098477BE07AE07B681B681B6803F48023CC
:102DF000002B20D07B681B681B6803F40023002B8A
:102E000010D17B685B6C002B34D07B685B6C78687E
:102E100098472FE038000020B5814E1B010080004C
:102E2000040080007B68DB6B002B23D07B68DB6BAE
:102E3000786898471EE07B681B681B6803F4807302
:102E4000002B0FD17B681B687A681268126822F029
:102E500010021A607B68002283F834207B6801220C
:102E600083F835207B68DB6B002B03D07B68DB6B42
:102E7000786898477B685B6D002B2FD07B685B6D13
:102E800003F00103002B21D07B68052283F8352055
:102E90007B681B687A681268126822F001021A6067
:102EA000BB680133BB607A69934200D906E07B6856
:102EB0001B681B6803F00103002BF1D17B68002223
:102EC00083F834207B68012283F835207B68DB6C33
:102ED000002B03D07B68DB6C786898471837BD46B9
:102EE00080BD00BF80B485B000AFF860B9607A6083
:102EF0003B60FB681B68FA681268126822F4802243
:102F00001A60FB681B683A685A60FB689B68402B34
:102F100008D1FB681B687A689A60FB681B68BA680E
:102F2000DA6007E0FB681B68BA689A60FB681B6898
:102F30007A68DA601437BD465DF8047B704700BFDD
:102F400080B485B000AF78607B681B68DBB2103B53
:102F5000144AA2FB03231B09FB60134AFB681344BA
:102F60001B781A467B68DA65FB68032B09D97B68F6
:102F70001B6823F47F7323F003031A1D7B689A6593
:102F800007E07B681B6823F47F7323F003037A68F0
:102F900093657B689B6D18461437BD465DF8047BCE
:102FA000704700BFABAAAAAAAC30010880B485B0B4
:102FB00000AF78600023FB737B689B6ABB607B6813
:102FC0009B69002B2DD1BB68032B28D801A252F896
:102FD00023F000BFE52F0008F92F00080B30000890
:102FE0001F3000087B68DB6A03F08073002B02D07F
:102FF0000123FB7314E013E07B68DB6AB3F1C07F4D
:1030000002D10123FB730BE00AE07B68DB6A03F06B
:103010008073002B02D00123FB7301E000E000BFAE
:1030200040E07B689B69B3F5005F28D1BB68032B48
:1030300023D801A252F823F0493000084F3000088D
:1030400063300008693000080123FB7316E07B68D9
:10305000DB6A03F08073002B02D00123FB730DE0C9
:103060000CE00123FB7309E07B68DB6AB3F1C07FEE
:1030700002D10123FB7301E000E000BF12E0BB6856
:10308000022B02D9032B03D00CE00123FB7309E0D0
:103090007B68DB6A03F08073002B02D00123FB7393
:1030A000FFE700BFFB7B18461437BD465DF8047B85
:1030B000704700BF80B588B000AF786039600023EA
:1030C0007B6100233B610023BB617B68424A9342E2
:1030D0002BD07B68414A934227D07B68404A934279
:1030E00023D07B683F4A93421FD07B683E4A93427D
:1030F0001BD07B683D4A934217D07B683C4A934281
:1031000013D07B683B4A93420FD07B683A4A934284
:103110000BD07B68394A934207D07B68384A934288
:1031200003D03848C52107F027FA3B681B689BB2DB
:10313000002B03D13348C62107F01EFA3B685B68B9
:10314000002B35D03B685B68012B31D03B685B6856
:10315000112B2DD03B685B68022B29D03B685B6844
:10316000122B25D03B685B68274A934220D03B68EE
:103170005B68264A93421BD03B685B68244A9342B3
:1031800016D03B685B68234A934211D03B685B686A
:10319000214A93420CD03B685B68204A934207D097
:1031A0003B685B68032B03D01648C72107F0E4F99E
:1031B0003B689B68002B0BD03B689B68012B07D0BA
:1031C0003B689B68022B03D00E48C82107F0D4F956
:1031D0000023FB6183E200BF0000024000040240C4
:1031E00000080240000C024000100240001402409F
:1031F00000180240001C024000200240002402404F
:103200000028024070280108000011100000211061
:1032100000003110000012100000221000003210D7
:10322000FB69012202FA03F37B613B681A687B6940
:1032300013403B613A697B699A4240F04D823B689A
:103240005B68022B04D03B685B68122B40F0DE8089
:103250003B681B69002B00F0B6803B681B69092B9B
:1032600000F0B1803B681B69002B00F0AC803B682C
:103270001B69002B00F0A7803B681B69002B00F046
:10328000A2803B681B69002B00F09D803B681B6996
:10329000012B00F098803B681B69012B00F09380A4
:1032A0003B681B69022B00F08E803B681B69022B78
:1032B00000F089803B681B69022B00F084803B682A
:1032C0001B69032B7FD03B681B69042B7BD03B68B9
:1032D0001B69042B77D03B681B69042B73D03B68B8
:1032E0001B69052B6FD03B681B69052B6BD03B68B6
:1032F0001B69092B67D03B681B69062B63D03B68B1
:103300001B69092B5FD03B681B69072B5BD03B68AF
:103310001B69072B57D03B681B69072B53D03B68B1
:103320001B69082B4FD03B681B69082B4BD03B68AF
:103330001B69082B47D03B681B69092B43D03B68AE
:103340001B69092B3FD03B681B690A2B3BD03B68AC
:103350001B690A2B37D03B681B690B2B33D03B68AA
:103360001B690C2B2FD03B681B690C2B2BD03B68A7
:103370001B690D2B27D03B681B690F2B23D03B68A3
:103380001B69052B1FD03B681B69052B1BD03B68B5
:103390001B69052B17D03B681B69082B13D03B68B2
:1033A0001B69082B0FD03B681B690C2B0BD03B68AB
:1033B0001B69062B07D03B681B690E2B03D087487F
:1033C000D92107F0D9F8FB69DA087B68083253F88D
:1033D0002230BB61FB6903F007039B001A460F23F1
:1033E0009340DB43BA691340BB613B681B69FA69D0
:1033F00002F0070292009340BA691343BB61FB6974
:10340000DA087B680832B96943F822107B681B68C8
:10341000BB61FB695B001A4603239340DB43BA6937
:103420001340BB613B685B6803F00303FA69520019
:103430009340BA691343BB617B68BA691A603B6801
:103440005B68012B0BD03B685B68022B07D03B68A5
:103450005B68112B03D03B685B68122B43D13B6840
:10346000DB68002B0FD03B68DB68012B0BD03B687F
:10347000DB68022B07D03B68DB68032B03D057487F
:10348000EC2107F079F87B689B68BB61FB695B0006
:103490001A4603239340DB43BA691340BB613B6880
:1034A000DB68FA6952009340BA691343BB617B68D9
:1034B000BA699A607B685B68BB61FB69012202FAAA
:1034C00003F3DB43BA691340BB613B685B6803F0FD
:1034D00010031A09FB6902FA03F3BA691343BB61CB
:1034E0007B68BA695A607B68DB68BB61FB695B001B
:1034F0001A4603239340DB43BA691340BB613B6820
:103500009B68FA6952009340BA691343BB617B68B8
:10351000BA69DA603B685B6803F08053002B00F007
:10352000DB800023FB602E4A2D4B5B6C43F4804311
:1035300053642B4B5B6C03F48043FB60FB68294AAC
:10354000FB699B08023352F82330BB61FB6903F02F
:1035500003039B001A460F239340DB43BA691340D1
:10356000BB617B68204A934252D07B681F4A9342DA
:1035700031D07B681E4A93422BD07B681D4A934210
:1035800025D07B681C4A93421FD07B681B4A93421C
:1035900019D07B681A4A934213D07B68194A934228
:1035A0000DD07B68184A934207D07B68174A934234
:1035B00001D109232DE00A232BE0082329E007236A
:1035C00027E0062325E0052323E0042321E003234D
:1035D0001FE002231DE001231BE000BF702801084B
:1035E0000038024000380140000002400004024060
:1035F00000080240000C024000100240001402408B
:1036000000180240001C024000200240002402403A
:103610000023FA6902F0030292009340BA6913434F
:10362000BB613249FB699B080233BA6941F8232028
:103630002F4B1B68BB613B69DB43BA691340BB611D
:103640003B685B6803F48033002B03D0BA693B69A5
:103650001343BB61264ABB691360254B5B68BB61A2
:103660003B69DB43BA691340BB613B685B6803F4A9
:103670000033002B03D0BA693B691343BB611C4A7A
:10368000BB6953601A4B9B68BB613B69DB43BA69FA
:103690001340BB613B685B6803F48013002B03D0CD
:1036A000BA693B691343BB61114ABB699360104B14
:1036B000DB68BB613B69DB43BA691340BB613B68B4
:1036C0005B6803F40013002B03D0BA693B69134312
:1036D000BB61074ABB69D360FB690133FB61FB69CE
:1036E0000F2B7FF69DAD2037BD4680BD00380140D1
:1036F000003C014080B584B000AF78600B467B8011
:103700007B88002B04D10A484FF4C87106F034FFBF
:103710007B681A697B881340002B02D00123FB735E
:1037200001E00023FB73FB7B18461037BD4680BDCC
:103730007028010880B582B000AF78600B467B80AE
:1037400013467B707B88002B04D10F4840F2B111E7
:1037500006F012FF7B78002B07D07B78012B04D07A
:1037600009484FF4D97106F007FF7B78002B03D08E
:103770007A887B689A6103E07B881A047B689A6187
:103780000837BD4680BD00BF7028010880B582B0F3
:1037900000AF78600B467B807B88002B04D1074804
:1037A0004FF4E47106F0E8FE7B685A697B885A4062
:1037B0007B685A610837BD4680BD00BF702801088C
:1037C00080B584B000AF78607B68002B01D1012305
:1037D0005DE07B681B68304A934203D02F48AF21DD
:1037E00006F0CAFE7B685B68002B1BD07B685B68B9
:1037F000012B17D07B685B68022B13D07B685B685A
:10380000032B0FD07B685B68042B0BD07B685B6855
:10381000052B07D07B685B68062B03D01F48B021BF
:1038200006F0AAFE7B689B68B3F5805F03D31B4854
:10383000B12106F0A1FE7B681B684CF6CC421A60F1
:103840007B681B6845F255521A607B681B687A6872
:1038500052685A607B681B687A6892689A60FDF7C4
:1038600095F9F86008E0FDF791F90246FB68D31A74
:10387000302B01D903230AE07B681B68DB68002B2F
:10388000F1D17B681B684AF6AA221A600023184609
:103890001037BD4680BD00BF00300040C028010881
:1038A00080B483B000AF78607B681B684AF6AA22B8
:1038B0001A60002318460C37BD465DF8047B70473C
:1038C00080B483B000AF4FF480737B607B6893FA61
:1038D000A3F33B603B68B3FA83F303F1845303F52E
:1038E00060339B001A46012313600C37BD465DF818
:1038F000047B704780B584B000AF0023FB604FF4B9
:103900000073BB60BB6893FAA3F37B607B68B3FA78
:1039100083F31A460F4B13449B001A46012313608E
:10392000FDF734F9F86009E0FDF730F90246FB686D
:10393000D31AB3F57A7F01D9032306E0064B5B68FF
:1039400003F00803002BEFD0002318461037BD46C4
:1039500080BD00BF208083100070004080B58EB015
:1039600000AF786000237B637B681B680F2B03D953
:103970009F48F52106F000FE7B681B6803F00103F9
:10398000002B62D07B685B68002B0BD07B685B6888
:10399000012B07D07B685B68052B03D09448FA2184
:1039A00006F0EAFD934B9B6803F00C03042B0BD04D
:1039B000904B9B6803F00C03082B12D18D4B5B6876
:1039C00003F48003002B0CD08A4B1B6803F40033F4
:1039D000002B05D07B685B68002B01D1012379E2C5
:1039E00033E0854A7B685B68DBB213707B685B6899
:1039F000002B15D0FDF7CAF878630AE0FDF7C6F88A
:103A000002467B6BD31A41F28832934201D90323D9
:103A100060E2784B1B6803F40033002BEED014E017
:103A2000FDF7B4F878630AE0FDF7B0F802467B6B67
:103A3000D31A41F28832934201D903234AE26D4BF3
:103A40001B6803F40033002BEED17B681B6803F086
:103A50000203002B00F08E807B68DB68002B08D00F
:103A60007B68DB68012B04D061484FF4967106F047
:103A700083FD7B681B691F2B04D95D4840F22D1123
:103A800006F07AFD5B4B9B6803F00C03002B0BD018
:103A9000584B9B6803F00C03082B26D1554B5B68F1
:103AA00003F48003002B20D1524B1B6803F0020368
:103AB000002B05D07B68DB68012B01D0012309E2D4
:103AC0004C484C4B1B6823F0F8027B681969F823BB
:103AD0003B633B6B93FAA3F3FB62FB6AB3FA83F39A
:103AE00001FA03F31343036044E07B68DB68002BB7
:103AF0002AD0424B01221A60FDF748F8786308E0AB
:103B0000FDF744F802467B6BD31A022B01D903233D
:103B1000E0E1384B1B6803F00203002BF0D035487E
:103B2000344B1B6823F0F8027B681969F823BB62E9
:103B3000BB6A93FAA3F37B627B6AB3FA83F301FA5D
:103B400003F31343036015E02C4B00221A60FDF7CA
:103B50001DF8786308E0FDF719F802467B6BD31A6D
:103B6000022B01D90323B5E1224B1B6803F00203AA
:103B7000002BF0D17B681B6803F00803002B47D0B3
:103B80007B685B69002B08D07B685B69012B04D0E4
:103B9000174840F26D1106F0EFFC7B685B69002B63
:103BA00016D0174B01221A60FCF7F0FF786308E08B
:103BB000FCF7ECFF02467B6BD31A022B01D90323DF
:103BC00088E10C4B5B6F03F00203002BF0D01FE089
:103BD0000B4B00221A60FCF7D9FF786312E0FCF768
:103BE000D5FF02467B6BD31A022B0BD9032371E15D
:103BF0001029010800380240023802400000474204
:103C0000800E4742A94B5B6F03F00203002BE6D105
:103C10007B681B6803F00403002B6BD07B689B68F8
:103C2000002B0CD07B689B68012B08D07B689B68BD
:103C3000052B04D09E4840F2971106F09DFC00230E
:103C4000BB609A4A994B1B6C43F080531364974BAB
:103C50001B6C03F08053BB60BB68964A954B1B6896
:103C600043F480731360FCF791FF786308E0FCF77E
:103C70008DFF02467B6BD31A022B01D9032329E166
:103C80008C4B1B6803F48073002BF0D08A4A7B684E
:103C90009B68DBB213707B689B68002B15D0FCF728
:103CA00075FF78630AE0FCF771FF02467B6BD31A5D
:103CB00041F28832934201D903230BE17B4B1B6F06
:103CC00003F00203002BEED014E0FCF75FFF7863F3
:103CD0000AE0FCF75BFF02467B6BD31A41F28832A5
:103CE000934201D90323F5E0704B1B6F03F00203ED
:103CF000002BEED17B689B69002B0CD07B689B6905
:103D0000012B08D07B689B69022B04D068484FF4D4
:103D1000E67106F031FC7B689B69002B00F0D980CE
:103D2000624B9B6803F00C03082B00F0D0807B688B
:103D30009B69022B40F0AA807B68DB69002B09D0CD
:103D40007B68DB69B3F5800F04D0594840F2D51188
:103D500006F012FC7B681B6A3F2B04D954484FF4D1
:103D6000EB7106F009FC7B685B6A312B04D97B6838
:103D70005B6AB3F5D87F04D94D4840F2D71106F0FD
:103D8000FBFB7B689B6A022B10D07B689B6A042B31
:103D90000CD07B689B6A062B08D07B689B6A082B3B
:103DA00004D043484FF4EC7106F0E6FB7B68DB6A15
:103DB000032B03D97B68DB6A0F2B04D93C4840F204
:103DC000D91106F0D9FB3D4B00221A60FCF7DEFE4C
:103DD000786308E0FCF7DAFE02467B6BD31A022B0D
:103DE00001D9032376E0314B1B6803F00073002BED
:103DF000F0D12E487B68DA697B681B6A1A437B68BE
:103E0000596A47F6C0733B623B6A93FAA3F3FB61BE
:103E1000FB69B3FA83F301FA03F31A437B689B6AE5
:103E20005B08591E4FF44033BB61BB6993FAA3F39F
:103E30007B617B69B3FA83F301FA03F31A437B686E
:103E4000D96A4FF070633B613B6993FAA3F3FB605F
:103E5000FB68B3FA83F301FA03F313434360174B90
:103E600001221A60FCF792FE786308E0FCF78EFEF0
:103E700002467B6BD31A022B01D903232AE00B4B9A
:103E80001B6803F00073002BF0D022E00B4B0022E4
:103E90001A60FCF77BFE786312E0FCF777FE0246BF
:103EA0007B6BD31A022B0BD9032313E0003802409B
:103EB000102901080070004070380240600047423D
:103EC000064B1B6803F00073002BE6D101E00123D1
:103ED00000E0002318463837BD4680BD0038024058
:103EE00080B586B000AF7860396000237B617B6865
:103EF0001B68002B03D07B681B680F2B04D99F48DD
:103F000040F2372106F038FB3B68002B31D03B688C
:103F1000012B2ED03B68022B2BD03B68032B28D0E3
:103F20003B68042B25D03B68052B22D03B68062B31
:103F30001FD03B68072B1CD03B68082B19D03B686F
:103F4000092B16D03B680A2B13D03B680B2B10D0E3
:103F50003B680C2B0DD03B680D2B0AD03B680E2B19
:103F600007D03B680F2B04D084484FF40E7106F045
:103F700003FB834B1B6803F00F023B689A420CD291
:103F80007F4B3A68D2B21A707D4B1B6803F00F0268
:103F90003B689A4201D001236BE17B681B6803F008
:103FA0000203002B31D07B689B68002B24D07B68F8
:103FB0009B68802B20D07B689B68902B1CD07B68F3
:103FC0009B68A02B18D07B689B68B02B14D07B68B3
:103FD0009B68C02B10D07B689B68D02B0CD07B6873
:103FE0009B68E02B08D07B689B68F02B04D063486B
:103FF00040F24F2106F0C0FA6249624B9B6823F001
:10400000F0027B689B6813438B607B681B6803F03E
:104010000103002B00F09D807B685B68002B10D0B3
:104020007B685B68012B0CD07B685B68022B08D037
:104030007B685B68032B04D0504840F2562106F0A1
:104040009BFA7B685B68012B07D14E4B1B6803F41E
:104050000033002B1AD101230BE17B685B68022B34
:1040600003D07B685B68032B08D1464B1B6803F0C9
:104070000073002B01D10123FBE007E0414B1B68DB
:1040800003F00203002B01D10123F2E03D493D4B37
:104090009B6823F003027B685B6813438B60FCF72B
:1040A00075FD78617B685B68012B12D10AE0FCF733
:1040B0006DFD02467B69D31A41F28832934201D9E1
:1040C0000323D6E02F4B9B6803F00C03042BEED1A7
:1040D0003FE07B685B68022B12D10AE0FCF756FDDB
:1040E00002467B69D31A41F28832934201D90323F5
:1040F000BFE0244B9B6803F00C03082BEED128E0B3
:104100007B685B68032B12D10AE0FCF73FFD024697
:104110007B69D31A41F28832934201D90323A8E084
:10412000184B9B6803F00C030C2BEED111E00AE056
:10413000FCF72CFD02467B69D31A41F28832934288
:1041400001D9032395E00F4B9B6803F00C03002B70
:10415000EED10B4B1B6803F00F023B689A4213D958
:10416000074B3A68D2B21A70054B1B6803F00F0276
:104170003B689A4208D001237BE000BF1029010868
:10418000003C0240003802407B681B6803F00403D7
:10419000002B25D07B68DB68002B18D07B68DB68A0
:1041A000B3F5805F13D07B68DB68B3F5A05F0ED0FA
:1041B0007B68DB68B3F5C05F09D07B68DB68B3F56B
:1041C000E05F04D02D484FF42D7106F0D5F92C494D
:1041D0002B4B9B6823F4E0527B68DB6813438B60B6
:1041E0007B681B6803F00803002B26D07B681B69E3
:1041F000002B18D07B681B69B3F5805F13D07B68F8
:104200001B69B3F5A05F0ED07B681B69B3F5C05F77
:1042100009D07B681B69B3F5E05F04D0174840F212
:10422000BB2106F0A9F91649154B9B6823F460429F
:104230007B681B69DB0013438B6000F027F80146A5
:104240000F4B9B6803F0F002F0233B613B6993FA4C
:10425000A3F3FB60FB68B3FA83F322FA03F3094A82
:10426000D35C21FA03F3084A13600F20FCF764FCC7
:10427000002318461837BD4680BD00BF102901082D
:1042800000380240B43001083800002080B48BB000
:1042900000AF0023FB6100237B620023BB6100238E
:1042A0003B62364B9B6803F00C03042B06D0082BB3
:1042B00007D0002B58D1324B3B6258E0314B3B6268
:1042C00055E02E4B5B6803F03F03FB612B4B5B68B3
:1042D00003F48003002B17D02A4AFB69B2FBF3F2E8
:1042E000264B596847F6C0730B4047F6C071796199
:1042F000796991FAA1F139613969B1FA81F1CB405B
:1043000003FB02F37B6216E01D4AFB69B2FBF3F28A
:104310001A4B596847F6C0730B4047F6C071F960F5
:10432000F96891FAA1F1B960B968B1FA81F1CB40AD
:1043300003FB02F37B62114B5B6803F440324FF4E2
:1043400040337B607B6893FAA3F33B603B68B3FA2E
:1043500083F322FA03F301335B00BB617A6ABB6922
:10436000B2FBF3F33B6202E0054B3B6200BF3B6AEA
:1043700018462C37BD465DF8047B70470038024074
:104380000024F40000127A0080B400AF034B1B68D5
:104390001846BD465DF8047B704700BF380000201A
:1043A00080B582B000AFFFF7EFFF01460B4B9B6873
:1043B00003F4E0524FF4E0537B607B6893FAA3F37D
:1043C0003B603B68B3FA83F322FA03F3044AD35CFD
:1043D00021FA03F318460837BD4680BD0038024075
:1043E000B430010880B582B000AFFFF7CDFF0146C1
:1043F0000B4B9B6803F460424FF460437B607B6827
:1044000093FAA3F33B603B68B3FA83F322FA03F316
:10441000044AD35C21FA03F318460837BD4680BD31
:1044200000380240B430010880B59CB000AF78601D
:104430000023FB660023BB667B681B68002B03D050
:104440007B681B687F2B04D979484FF4CA6106F05A
:1044500093F87B681B6803F00103002B06D17B688F
:104460001B6803F00203002B00F0B7807B685B68D9
:10447000312B04D97B685B68B3F5D87F04D96C48CD
:1044800040F25A6106F078F86A4B00221A60FCF795
:104490007DFBF86608E0FCF779FB0246FB6ED31A59
:1044A000022B01D9032356E3634B1B6803F000631F
:1044B000002BF0D17B681B6803F00103002B2BD08D
:1044C0007B689B68012B03D97B689B68072B04D909
:1044D00057484FF4CE6106F04FF857487B685A684A
:1044E00047F6C0737B667B6E93FAA3F33B663B6E25
:1044F000B3FA83F39A407B6899684FF0E043FB6519
:10450000FB6D93FAA3F3BB65BB6DB3FA83F301FABA
:1045100003F31343C0F884307B681B6803F0020385
:10452000002B44D07B68DB68012B03D97B68DB68F8
:104530000F2B04D93E4840F27D6106F01DF87B68E0
:10454000DB69002B03D07B68DB69202B04D938485A
:1045500040F27E6106F010F8374BD3F8843003F058
:10456000E0424FF0E0437B657B6D93FAA3F33B653C
:104570003B6DB3FA83F322FA03F3BB662E497B68E3
:104580005B689A017B68DB681B061A43BB6E1B07DE
:104590001343C1F884302849274BD3F88C3023F0DB
:1045A0001F027B68DB69013B1343C1F88C30214B50
:1045B00001221A60FCF7EAFAF86608E0FCF7E6FA6E
:1045C0000246FB6ED31A022B01D90323C3E21A4B16
:1045D0001B6803F00063002BF0D07B681B6803F0BE
:1045E0000403002B06D17B681B6803F00803002B33
:1045F00000F02A817B681B69312B04D97B681B6919
:10460000B3F5D87F04D90A4840F2A36105F0B4FF9E
:104610000A4B00221A60FCF7B9FAF86610E0FCF7C2
:10462000B5FA0246FB6ED31A022B09D9032392E294
:104630006029010868004742003802407000474284
:104640007B4B1B6803F00053002BE8D17B681B6891
:1046500003F00403002B65D07B685B69012B03D951
:104660007B685B690F2B04D972484FF4D76105F062
:1046700083FF7B681B6A002B03D07B681B6A202B9F
:1046800004D96C4840F2B96105F076FF684BD3F865
:10469000883003F0E0424FF0E043FB64FB6C93FA98
:1046A000A3F3BB64BB6CB3FA83F322FA03F3BB66D8
:1046B0005F487B681A6947F6C0737B647B6C93FA2A
:1046C000A3F33B643B6CB3FA83F39A407B6859696C
:1046D0004FF07063FB63FB6B93FAA3F3BB63BB6B9D
:1046E000B3FA83F301FA03F31A434FF0E0437B6319
:1046F0007B6B93FAA3F33B633B6BB3FA83F3B96E23
:1047000001FA03F31343C0F888304949484BD3F802
:104710008C3023F4F8527B681B6A013B1B02134365
:10472000C1F88C307B681B6803F00803002B6ED047
:104730007B689B69012B03D97B689B69072B04D994
:104740003C484FF4D96105F017FF7B685B6A002B8A
:1047500013D07B685B6AB3F5803F0ED07B685B6AE1
:10476000B3F5003F09D07B685B6AB3F5403F04D0E6
:10477000304840F2C96105F0FFFE2D4BD3F8883078
:1047800003F070624FF07063FB62FB6A93FAA3F36D
:10479000BB62BB6AB3FA83F322FA03F3BB66244815
:1047A0007B681A6947F6C0737B627B6A93FAA3F34E
:1047B0003B623B6AB3FA83F39A404FF07063FB614C
:1047C000FB6993FAA3F3BB61BB69B3FA83F3B96ED8
:1047D00001FA03F31A437B6899694FF0E0437B6168
:1047E0007B6993FAA3F33B613B69B3FA83F301FA64
:1047F00003F31343C0F888300D490D4BD3F88C30C8
:1048000023F440327B685B6A1343C1F88C300A4B57
:1048100001221A60FCF7BAF9F8660FE0FCF7B6F966
:104820000246FB6ED31A022B08D9032393E100BF83
:10483000003802406029010870004742964B1B680F
:1048400003F00053002BE9D07B681B6803F02003C2
:10485000002B00F074817B689B6AB3F5807F00F0C9
:10486000A6807B689B6AB3F5007F00F0A0807B6820
:104870009B6A8A4A934200F09A807B689B6A884AC6
:10488000934200F094807B689B6A864A934200F0D2
:104890008E807B689B6A844A934200F088807B68A4
:1048A0009B6A824A934200F082807B689B6A804ABE
:1048B00093427CD07B689B6A7E4A934277D07B6828
:1048C0009B6A7D4A934272D07B689B6A7B4A934283
:1048D0006DD07B689B6A7A4A934268D07B689B6AFA
:1048E000784A934263D07B689B6A774A93425ED052
:1048F0007B689B6A754A934259D07B689B6A744A6D
:10490000934254D07B689B6A724A93424FD07B6833
:104910009B6A714A93424AD07B689B6A6F4A934272
:1049200045D07B689B6A6E4A934240D07B689B6A05
:104930006C4A93423BD07B689B6A6B4A934236D069
:104940007B689B6A694A934231D07B689B6A684A5C
:1049500093422CD07B689B6A664A934227D07B683F
:104960009B6A654A934222D07B689B6A634A934262
:104970001DD07B689B6A624A934218D07B689B6A11
:10498000604A934213D07B689B6A5F4A93420ED081
:104990007B689B6A5D4A934209D07B689B6A5C4A4C
:1049A000934204D05B484FF4DD6105F0E5FD002340
:1049B000FB60394A384B1B6C43F080531364364B11
:1049C0001B6C03F08053FB60FB68534A524B1B681F
:1049D00043F480731360FCF7D9F8F86608E0FCF73D
:1049E000D5F80246FB6ED31A022B01D90323B2E09D
:1049F000494B1B6803F48073002BF0D0264B1B6FD0
:104A000003F44073BB66BB6E002B2FD07B689B6AA0
:104A100003F44072BB6E9A4228D01F4B1B6F23F4E5
:104A20004073BB663D4B01221A603C4B00221A606A
:104A3000194ABB6E1367184B1B6F03F00103002B61
:104A400014D0FCF7A3F8F8660AE0FCF79FF80246DA
:104A5000FB6ED31A41F28832934201D903237AE0E4
:104A60000D4B1B6F03F00203002BEED07B689B6A9B
:104A700003F44073B3F5407F52D10749064B9B685E
:104A800023F4F8127B689B6A23F0704323F440738D
:104A900013438B604AE000BF00380240000302006D
:104AA00000030300000304000003050000030600E8
:104AB00000030700000308000003090000030A00C8
:104AC00000030B0000030C0000030D0000030E00A8
:104AD00000030F0000031000000311000003120088
:104AE0000003130000031400000315000003160068
:104AF00000031700000318000003190000031A0048
:104B000000031B0000031C0000031D0000031E0027
:104B100000031F006029010800700040400E47425A
:104B20000F4A0F4B9B6823F4F81393600C490C4B0E
:104B30001A6F7B689B6AC3F30B0313430B677B6895
:104B40001B6803F01003002B04D0064A7B6893F81F
:104B50002C301360002318467037BD4680BD00BF5F
:104B600000380240E011474280B582B000AF786063
:104B70007B68002B01D10123BBE07B685B68402B85
:104B800007D07B685B68002B03D05C48D42105F01C
:104B9000F3FC7B689B687F2B03D95848D52105F02F
:104BA000EBFC7B68DB68B3F5004F03D35348D62199
:104BB00005F0E2FC7B681B69002B12D07B681B6947
:104BC000B3F5001F0DD07B681B69B3F5800F08D0CB
:104BD0007B681B69B3F5C00F03D04848D72105F0A7
:104BE000CBFC7B685B69002B08D07B685B69B3F505
:104BF000801F03D04148D82105F0BEFC7B689B692B
:104C0000002B08D07B689B69B3F5802F03D03B480D
:104C1000D92105F0B1FC7B685B7FDBB2002B05D1AD
:104C20007B6800221A77786800F06AF87B680222B5
:104C30005A777B681B68CA225A627B681B685322BA
:104C40005A62786800F0E6FB0346002B08D07B68C8
:104C50001B68FF225A627B6804225A77012348E0CE
:104C60007B681A687B681B689B6823F4E00323F069
:104C7000400393607B681B687A68126891687A6861
:104C800050687A68126910437A68526902430A438D
:104C90009A607B681B687A68D2681A617B681B68B7
:104CA0007A68126811697A68926812040A431A6174
:104CB0007B681B687A681268D26822F08002DA602A
:104CC0007B681B687A681268126C22F480221A646E
:104CD0007B681B687A681268116C7A6892690A436B
:104CE0001A647B681B68FF225A627B6801225A772C
:104CF000002318460837BD4680BD00BFB029010813
:104D000080B483B000AF78600C37BD465DF8047B9B
:104D1000704700BF90B587B000AFF860B9607A60A7
:104D200000237B617B68002B07D07B68012B04D0BC
:104D3000A4484FF4DA7105F01FFCBB68DB68B3F5DB
:104D4000003F0DD0BB68DB68B3F5803F08D0BB687F
:104D5000DB68002B04D09B4840F2B51105F00CFC39
:104D6000BB681B69002B09D0BB681B69B3F5802F9A
:104D700004D094484FF4DB7105F0FEFBFB681B7F09
:104D8000012B01D102232AE1FB6801221A77FB687B
:104D900002225A777B68002B5CD1FB681B689B68FA
:104DA00003F04003002B1AD0BB681B78002B03D004
:104DB000BB681B780C2B04D9824840F2C11105F066
:104DC000DBFBBB68DB78002B15D0BB68DB78402BA6
:104DD00011D07C484FF4E17105F0CEFB0BE0BB68CD
:104DE0000022DA70BB681B78172B04D9754840F293
:104DF000C71105F0C1FBBB685B783B2B04D9714838
:104E000040F2C91105F0B8FBBB689B783B2B04D975
:104E10006C484FF4E57105F0AFFBBB681B78184692
:104E200000F024FB03461C04BB685B78184600F0C6
:104E30001DFB03461B021C43BB689B78184600F011
:104E400015FB034644EA0302BB68DB781B041343EB
:104E50007B615FE0FB681B689B6803F04003002BED
:104E60001FD0BB681B78184600F01EFB03467B6111
:104E70007B69002B02D07B690C2B04D951484FF47D
:104E8000EB7105F079FBBB68DB78002B19D0BB68B0
:104E9000DB78402B15D04B4840F2D71105F06CFB66
:104EA0000FE0BB680022DA70BB681B78184600F080
:104EB000FBFA0346172B04D942484FF4EE7105F074
:104EC0005BFBBB685B78184600F0EEFA03463B2BB1
:104ED00004D93C484FF4EF7105F04EFBBB689B785A
:104EE000184600F0E1FA03463B2B04D9354840F25E
:104EF000DF1105F041FBBB681B781A04BB685B78C7
:104F00001B021343BA6892781A43BB68DB781B0410
:104F100013437B61FB681B68CA225A62FB681B68EB
:104F200053225A62F86800F075FA0346002B0BD042
:104F3000FB681B68FF225A62FB6804225A77FB68F1
:104F400000221A7701234AE0FB681A687B6903F0A4
:104F50007F3323F0FE431360FB681B68FA68126816
:104F6000926822F480229A60FB681B68FA681268D3
:104F70009168BA68D068BA68126902430A439A60B5
:104F8000FB681B68FA681268D26822F08002DA6057
:104F9000FB681B689B6803F02003002B14D1F868A2
:104FA00000F010FA0346002B0ED0FB681B68FF22AE
:104FB0005A62FB6804225A77FB6800221A770123A1
:104FC0000DE000BFB0290108FB681B68FF225A6290
:104FD000FB6801225A77FB6800221A7700231846E3
:104FE0001C37BD4690BD00BF80B586B000AFF860ED
:104FF000B9607A6000237B617B68002B07D07B68F7
:10500000012B04D02B484FF40E7105F0B5FAFB6864
:105010001B689A6ABB685A60FB681B681B69C3F30C
:105020000E02BB689A60FB681B681B6803F07F3345
:1050300023F0FE437B617B6903F47C131B0CDAB223
:10504000BB681A707B6903F4FE431B0ADAB2BB68C3
:105050005A707B69DBB203F07F03DAB2BB689A70E7
:105060007B6903F480031B0CDAB2BB68DA707B68DF
:10507000002B1AD1BB681B78184600F015FA0346BE
:105080001A46BB681A70BB685B78184600F00CFAC9
:1050900003461A46BB685A70BB689B78184600F0F6
:1050A00003FA03461A46BB689A700023184618375D
:1050B000BD4680BDB029010890B587B000AFF8604B
:1050C000B9607A6000237B617B68002B07D07B6826
:1050D000012B04D08C4840F2652105F04DFAFB68A5
:1050E0001B7F012B01D1022309E1FB6801221A7702
:1050F000FB6802225A777B68002B0ED1BB685B7875
:1051000003F01003002B08D0BB685B7823F010037A
:10511000DBB20A33DAB2BB685A70BB681B78012B6A
:105120001CD0BB681B78022B18D0BB681B78032BE4
:1051300014D0BB681B78042B10D0BB681B78052BE0
:105140000CD0BB681B78062B08D0BB681B78072BDC
:1051500004D06D4840F2712105F00EFA7B68002BF7
:105160003FD1BB68DB78632B04D9674840F27521D7
:1051700005F002FABB685B78002B03D0BB685B7854
:105180000C2B04D9604840F2762105F0F5F9BB6894
:105190009B78002B03D0BB689B781F2B04D95A48FF
:1051A00040F2772105F0E8F9BB68DB78184600F09B
:1051B0005DF903461C04BB685B78184600F056F99D
:1051C00003461B021C43BB689B78184600F04EF94F
:1051D000034644EA0302BB681B785B0313437B610D
:1051E0003FE0BB68DB78184600F05EF90346632BAE
:1051F00004D945484FF4207105F0BEF9BB685B78CF
:10520000184600F051F903467B617B69002B02D000
:105210007B690C2B04D93C4840F2822105F0ACF9A3
:10522000BB689B78184600F03FF903467B617B69B9
:10523000002B02D07B691F2B04D933484FF4217116
:1052400005F09AF9BB68DB781A04BB685B781B022F
:105250001343BA6892781A43BB681B785B03134305
:105260007B61FB681B68CA225A62FB681B68532279
:105270005A62F86800F0CEF80346002B0BD0FB68AA
:105280001B68FF225A62FB6804225A77FB680022DF
:105290001A77012333E0FB681A687B6923F07F43A8
:1052A00023F0C0035360FB681B68FA681268D26879
:1052B00022F08002DA60FB681B689B6803F0200321
:1052C000002B11D1F86800F07DF80346002B0BD0BD
:1052D000FB681B68FF225A62FB6804225A77FB684E
:1052E00000221A7701230AE0FB681B68FF225A623A
:1052F000FB6801225A77FB6800221A7700231846C0
:105300001C37BD4690BD00BFB029010880B586B0EE
:1053100000AFF860B9607A6000237B617B68002B86
:1053200007D07B68012B04D0254840F2D52105F039
:1053300023F9FB681B685B6823F07F4323F0C003FD
:105340007B617B6903F47F031B0CDAB2BB68DA7004
:105350007B6903F4F8531B0ADAB2BB685A707B69A5
:10536000DBB203F03F03DAB2BB689A707B6903F4E7
:1053700060435B0BDAB2BB681A707B68002B1AD1F2
:10538000BB68DB78184600F08FF803461A46BB6806
:10539000DA70BB685B78184600F086F803461A4658
:1053A000BB685A70BB689B78184600F07DF80346CE
:1053B0001A46BB689A70002318461837BD4680BD50
:1053C000B029010880B584B000AF78600023FB608D
:1053D0007B681B687A681268D26822F0A002DA60E3
:1053E000FBF7D4FBF86009E0FBF7D0FB0246FB6853
:1053F000D31AB3F57A7F01D9032307E07B681B68D2
:10540000DB6803F02003002BEED000231846103792
:10541000BD4680BD80B584B000AF78600023FB60DE
:105420007B681B68DB6803F04003002B19D17B68A5
:105430001B684FF0FF32DA60FBF7A8FBF86009E069
:10544000FBF7A4FB0246FB68D31AB3F57A7F01D9B8
:10545000032307E07B681B68DB6803F04003002B35
:10546000EED0002318461037BD4680BD80B485B00D
:1054700000AF0346FB710023FB6005E0FB680133CE
:10548000FB60FB790A3BFB71FB79092BF6D8FB68C3
:10549000DBB21B01DAB2FB791343DBB218461437D7
:1054A000BD465DF8047B704780B485B000AF03460D
:1054B000FB710023FB60FB791B09DBB21A46134624
:1054C0009B0013445B00FB60FB7903F00F03DAB22F
:1054D000FB68DBB21344DBB218461437BD465DF8F7
:1054E000047B704780B584B000AF78600023FB6018
:1054F0007B681B7F012B01D1022347E07B680122DF
:105500001A777B6802225A777B681B68CA225A6224
:105510007B681B6853225A627B681B687A68126832
:10552000926822F480629A607B681B687A681268CD
:10553000926822F480429A60FBF728FBF86013E03F
:10554000FBF724FB0246FB68D31AB3F57A7F0BD92D
:105550007B681B68FF225A627B6803225A777B684C
:1055600000221A77032311E07B681B68DB6803F0D5
:105570000403002BE4D07B681B68FF225A627B681F
:1055800001225A777B6800221A77002318461037C9
:10559000BD4680BD80B582B000AF78607B68002BCF
:1055A00001D1012317E17B681B688D4A93421DD00E
:1055B0007B681B688B4A934218D07B681B688A4AB9
:1055C000934213D07B681B68884A93420ED07B6855
:1055D0001B68874A934209D07B681B68854A9342BF
:1055E00004D0854840F20B1104F0C6FF7B685B686D
:1055F000002B09D07B685B68B3F5827F04D07E48BE
:105600004FF4867104F0B8FF7B689B68002B0ED0C6
:105610007B689B68B3F5806F09D07B689B68B3F5A6
:10562000004F04D0744840F20D1104F0A5FF7B68D0
:10563000DB68B3F5006F08D07B68DB68002B04D013
:105640006D484FF4877104F097FF7B689B69B3F551
:10565000007F0DD07B689B69002B09D07B689B691C
:10566000B3F5802F04D0644840F20F1104F084FF9A
:105670007B68DB69002B20D07B68DB69082B1CD0A2
:105680007B68DB69102B18D07B68DB69182B14D082
:105690007B68DB69202B10D07B68DB69282B0CD062
:1056A0007B68DB69302B08D07B68DB69382B04D042
:1056B00051484FF4887104F05FFF7B681B6A002B30
:1056C00008D07B681B6A802B04D04B4840F2111134
:1056D00004F052FF7B685B6A002B08D07B685B6A32
:1056E000102B04D044484FF4897104F045FF7B68C7
:1056F0005B6A002B19D17B681B69002B08D07B6883
:105700001B69022B04D03C4840F2151104F034FF11
:105710007B685B69002B08D07B685B69012B04D038
:1057200035484FF48B7104F027FF7B6800229A62A2
:105730007B6893F85130DBB2002B06D17B680022E6
:1057400083F85020786804F0F7FE7B68022283F823
:1057500051207B681B687A681268126822F0400248
:105760001A607B681B687A6851687A68926811438E
:105770007A68D26811437A68126911437A6852696B
:1057800011437A68926902F4007211437A68D2690F
:1057900011437A68126A11437A68926A0A431A605E
:1057A0007B681B687A689269120C02F004017A68BF
:1057B000526A0A435A607B681B687A681268D26929
:1057C00022F40062DA617B6800225A657B6801225C
:1057D00083F85120002318460837BD4680BD00BF1E
:1057E0000030014000380040003C004000340140DF
:1057F0000050014000540140002A010890B587B0D4
:1058000000AFF860B9601346FB800023FB75FB68AE
:105810009B68002B09D0FB689B68B3F5004F04D050
:105820004A4840F21A5104F0A7FEFB6893F8503042
:10583000012B01D1022385E0FB68012283F850206F
:10584000FB6893F85130DBB2012B02D00223FB75C9
:1058500073E0BB68002B02D0FB88002B02D1012330
:10586000FB756AE0FB68032283F85120FB68002285
:105870005A65FB68BA681A63FB68FA889A86FB68FF
:10588000FA88DA86FB6800229A63FB6800225A6471
:10589000FB6800221A64FB6800229A87FB680022DA
:1058A000DA87FB689B68B3F5004F07D1FB681B687C
:1058B000FA681268126842F480421A60FB689B6CB6
:1058C000234A1A64FB689B6C224ADA63FB689B6C70
:1058D000214ADA64FB689B6C00221A65FB689A6CAB
:1058E000FB681B6B1946FB681B680C331C46FB6886
:1058F000DB8E9BB210462246FDF7C0F8FB681B68A2
:105900001B6803F04003002B07D1FB681B68FA6893
:105910001268126842F040021A60FB681B68FA685D
:105920001268526842F020025A60FB681B68FA68ED
:105930001268526842F002025A60FB68002283F843
:105940005020FB7D18461C37BD4690BD002A01083B
:10595000015F00085D5D0008555F000890B589B0E3
:1059600000AFF860B9607A607B800023BB610023E0
:105970007B610023FB77FB689B68002B04D06C489D
:1059800040F2D95104F0F8FDFB6893F85030012B38
:1059900001D10223C8E0FB68012283F85020FB6894
:1059A00093F85130DBB2BB61FB685B687B61BB691C
:1059B000012B0DD07B69B3F5827F06D1FB689B6814
:1059C000002B02D1BB69042B02D00223FB77A6E097
:1059D000BB68002B05D07B68002B02D07B88002B96
:1059E00002D10123FB779AE0FB6893F85130DBB2D8
:1059F000012B03D1FB68052283F85120FB680022AC
:105A00005A65FB68BA681A63FB687A889A86FB68ED
:105A10007A88DA86FB687A689A63FB687A889A875C
:105A2000FB687A88DA87FB6800221A64FB68002228
:105A30005A64FB6893F85130DBB2042B08D1FB6841
:105A4000DB6C3C4A1A64FB68DB6C3B4ADA6307E0B8
:105A5000FB68DB6C394A1A64FB68DB6C384ADA6332
:105A6000FB68DB6C374ADA64FB68DB6C00221A6582
:105A7000FB68DA6CFB681B680C331946FB689B6B90
:105A80001C46FB68DB8F9BB210462246FCF7F6FFF4
:105A9000FB681B68FA681268526842F001025A609B
:105AA000FB689B6C00221A64FB689B6C0022DA6323
:105AB000FB689B6C0022DA64FB689B6C00221A6511
:105AC000FB689A6CFB681B6B1946FB681B680C3300
:105AD0001C46FB68DB8E9BB210462246FCF7CEFFCD
